:04000000950A00005D
:0800080015006B0B9C0B1400AA
:08001000F40A1400C40A1400F4
:080018004E0B1500580B1400FB
:08002000BE0A1500640B150077
:080028003A0B1300650B1300F5
:080030006F0B13006D0B1300B0
:08003800710B1400B40B14005D
:08004000AA0B1400A20B14002E
:08004800C80B1200200B14008C
:08005000DE0BCF0B1100260BA3
:0800580012006C0B930B130066
:08006000C60B1100060A110095
:080068000F0B1700D70B170066
:08007000D90B1400E60B170088
:08007800E30B1100060B600010
:08008000300018000C0006001E
:0800880003000200010010005A
:08009000200040008000080080
:080098001400200013002100F8
:0800A00012002800110000000D
:0800A80043004D005500630008
:0800B00061006D003200200028
:0800B800760031002E0030003B
:0800C000310020006300000084
:0800C800A30C270AE70CA80CA9
:0800D0002609AE09230D6C0B9B
:0800D8002C046C04B309730B46
:0800E000620B700B720B640B44
:0800E800AC09F60D6F0BE40CEE
:0800F000B30DF30BF408330C0F
:0800F800A708A70D670A670BBA
:08010000E70D270D230CB209E5
:08010800F20CF40DF00C330BB6
:08011000B0093009740A280946
:08011800E4083309E808330D87
:08012000280D2D093509E60C3C
:080128000000100045069B0ACF
:08013000E4051B00D105060CDB
:0801380043000600800E43069F
:08014000680B160C43000C0CC7
:0801480006001000E4051B0095
:0801500032062C0B5E0CE101EC
:08015800E4051B001502100074
:080160004306F40AE404180050
:08016800F60016024307F40A39
:0801700014023600010CE40545
:080178001B0095004307DC0A9F
:080180005106C50A16024307EF
:08018800CA0AE4051B00760021
:080190007500DB0A160297005E
:080198000F0E2400860CE401A7
:0801A0000002E4051B0034001D
:0801A800F6000A0CD801350035
:0801B000180243066704F40A7B
:0801B8000C0C95000306F30A8C
:0801C0000B0C95004307E60A51
:0801C8006704F30A020C950024
:0801D0004306EC0A1407EE0AD5
:0801D8006705EF0A6704030448
:0801E000E4051B003403F500E7
:0801E800E4051B00FC022A0BD8
:0801F000B902010C990143075B
:0801F800140B5000470CDA0162
:0802000041003B001A0224003A
:08020800810CE4010002E40591
:080210001B003C0043070F0B2B
:08021800320C3C007B001B02CC
:0802200025011C023D002A0B20
:08022800030F43071F0BFF0C3D
:080230009B0165011D023C0069
:080238007C02BC022A0BB00C91
:08024000E4051B003C007900FD
:08024800BA02050C9A004306FE
:080250007A002A0B000C0F00DC
:08025800E40418001D0210006F
:080260004306540BFF001F02CE
:080268004307540B020C3F0098
:08027000F50015024307540BD1
:080278001402350003043D03EC
:080280008606FD050307540B7F
:080288001D021F0030001800E8
:080290007D00E4051B0051058F
:08029800190C4300000C0600E4
:0802A0001B0C4300EF0C0600EB
:0802A800010CE4051B00B2018A
:0802B0001207660BE4041800BC
:0802B8001D024307630BE4057E
:0802C0001B003204AA0AAF0C76
:0802C800E101AC0AAF0C0F00CC
:0802D000800CE40418003D005D
:0802D8001B0C4300FF0C0600A3
:0802E000190C4300000C06009C
:0802E800140235000304350384
:0802F0001402F501040C3F00AB
:0802F800E4051B0012043205AD
:08030000F10C8100100003065E
:08030800890B200C81000306A3
:080310008A0BA10AE4041800A5
:08031800FF00AE0C8100030799
:08032000FF00000C0F000D0CA2
:08032800950BE4051B00100613
:080330000D009C0B0D0C9C0B51
:080338002A00E4051B00F1049A
:080340000D0F4306F105510603
:080348000D00E4041E0079061B
:080350000D00100CE4051B0078
:08035800960010004306A90BFA
:08036000030CE4051B009500ED
:080368000306B90B150243075F
:08037000B00B860CE4051B0034
:08037800D70124000A02200055
:08038000E4051B00B7020F0C9D
:080388007701B60215024307DC
:080390000D00B502010CE404AC
:08039800180036000D00E4041A
:0803A00019003B007800640C19
:0803A8003A00E4051B001007F8
:0803B000E00BE4041900DB037B
:0803B800DE0BFB001B029C0B95
:0803C0001000E4051B00F1062A
:0803C800E70B200C0609E40418
:0803D00019007900E404190092
:0803D8001A029B000306F10B61
:0803E000F40B3B00B902EA0B2B
:0803E800190218014306FC0B89
:0803F0001805300CD9010609C3
:0803F800A60CE4041900FA014F
:080400000306E70B300CDB01E1
:0804080010009C0BE404190034
:080410007C001D04E4051B0043
:08041800B00510003D09E405E8
:080420001B0050060D002C002A
:080428002D00D00CED010A0CBF
:080430008D00110003062D0AE6
:08043800640CE40419009C00AF
:080440000307230A450A030427
:080448007C0303045C032C009B
:08045000CC01CD01FC011D05EA
:08045800440AE40419001D062A
:08046000370A200C8C00430652
:08046800360A450A440A200C83
:080470008C0143063E0A2D0F2A
:080478004307420AE4041900E5
:080480001C020D001100450AE9
:080488000D0AE4051B00B0049D
:08049000000C0D006F0050008C
:08049800540CCF014100AF023A
:0804A000000D4307540A570A3E
:0804A800100006094B0A360C96
:0804B000E4051B009106370C66
:0804B8001000060910009A0B68
:0804C000E404190038000B02EE
:0804C8003900240000022A00A3
:0804D000A4020002E40419007B
:0804D80034000A023300750034
:0804E000180224000002E404EC
:0804E8001900310070007200E0
:0804F000E4051B007207840AF9
:0804F800E404190014023500B0
:08050000130234007300920A9B
:08050800E4051B0031079B0A0A
:08051000E404190019022400A3
:08051800020CE4010002E404FE
:0805200019003500E404190084
:0805280018022400A4020002E5
:08053000E40419003200E404A8
:08053800190076001102120106
:0805400011004306EC0AFF0C58
:08054800D101E4051B0052067D
:08055000AF0AE40419001102D6
:0805580003042A000A03E40475
:080560001900F3010307B70ABB
:08056800B4024306B502800C49
:0805700037000304E404190044
:080578003203310330031502C8
:080580004307E50A12024307DC
:08058800E00A14029100430691
:08059000CB0A0307D50A43075B
:08059800E00AE404190013025B
:0805A00090004306D50A030692
:0805A800E00AE404190010024E
:0805B000B30011022A00030749
:0805B8008A02B40017023601AB
:0805C0000304E40419003703F1
:0805C800EA0A030435033403C1
:0805D000330303040307B90A19
:0805D80016020D00E4041900F5
:0805E0003D003F0CF809E404A2
:0805E8001900FD02F10A0D00EB
:0805F000E40419003800270C97
:0805F8002A00CA004306010BB2
:08060000FC0AE4041900F802F1
:08060800FB0A0D00E4051B00D4
:080610005107060B5104E4043C
:080618001F0010020D00030C8D
:080620002F00E4041800110290
:080628002B00120260092A00F8
:08063000E4041800100224008C
:080638000A022000E40418008E
:08064000B002020CF101EF020F
:08064800110B0D00E4041F007A
:0806500013021A003700B70382
:080658000F0C770143060D00B1
:080660001F0014021A0038000B
:08066800B8030F0C78014306F2
:080670000D00E4051902E40489
:080678001B0030001A003104E0
:08068000080C2F001100110607
:080688004B0B030C1B0090005A
:0806900043077000540BE40560
:080698001B009207540BE4045F
:0806A0001A003105100C2F00B7
:0806A800E4041B0010024306EC
:0806B000670B010F43075E0B0D
:0806B800AA0C5F0BFC0C100002
:0806C00006090F0210000609F3
:0806C8000F02100006091200E8
:0806D000AB09060C2A002A0CFC
:0806D8001300270910000709B7
:0806E000C00CE4041A0039000B
:0806E8007500E4041A009506F8
:0806F00012006E0A15077E0BD3
:0806F8003107830B200C2A00DE
:08070000400C13002709E4047A
:080708001A0018023300100072
:080710000909400CE4041A0081
:080718003400E4041A0017028A
:08072000320010000B09E40493
:0807280018001B02240000026E
:080730002A000304E4041A008E
:0807380031072A03140224001A
:080740000002CA012000A4021E
:080748000306A002E4041A00FC
:08075000F202910B020CF4010E
:08075800600C940043078D0BB7
:08076000F302870B1506B70B2D
:0807680031071200650AE404E8
:080770001A0017022B00180209
:080778001200CB09400CE4045F
:080780001A0034007600E404C5
:080788001A0096061200650A32
:0807900014022B00A50C600906
:080798002A00E4041A003107F5
:0807A000D30B6E00DB0B030418
:0807A8002A031606DB0B0A020E
:0807B0002E001200460A0A02A5
:0807B800EE01030CE4041B0038
:0807C000900011004307E70B54
:0807C8000E0210000609E40412
:0807D0001A0011071200400A93
:0807D80003047303190224005D
:0807E00000022D002F000E02A3
:0807E800AD000306F90B6D02E0
:0807F000AD02020CE4041B0041
:0807F800900043071200080AFB
:080800000F0243060E028E00F8
:0808080010002309100006098D
:080810000F0243063F0AE40455
:080818001A0010028D00030715
:080820003F0A0D02FE01030670
:08082800BF0296022D009502AB
:080830002E0031061F0A03042B
:080838002D0303042E03130538
:080840000D022A00980CBB090F
:080848000E022A00990CBB0905
:08085000FF0CE40519009C00F7
:080858004306390ABC020D023F
:08086000E4041A00FA0103068A
:08086800BB020E02FC010306B5
:08087000BD02E4041A00510767
:080878003F0A6E00400A460A27
:08088000E4041A00190224002F
:080888000E0220001200E4043E
:080890001A0016075E0AB90206
:080898000F0C96014306550AFE
:0808A000080F43075E0A31074F
:0808A8005E0A010CE4041B00D0
:0808B000900043075E0A1A00E4
:0808B8001302B509E4041A0063
:0808C000B602020CF401110064
:0808C800C30B15066B0A310792
:0808D0006B0AF80CF901B502F6
:0808D8001100750BE405190085
:0808E000D803750A78007900C5
:0808E800810A2A0C2B009C0C74
:0808F00085092E0C2B009C0C65
:0808F80011006009E40519007C
:080900003D00E4041B0010029D
:080908009C0A2F000B022E00D7
:08091000AE022B000F021100E2
:080918006009E4051900360036
:080920001B003106AE028E023D
:080928002B000F021100600911
:08093000E405190037000D0079
:08093800000D43060D00010F44
:0809400012004307A80AAA0CEB
:0809480010000609AA0CA90A1F
:08095000FD0C10009C0B080CCB
:080958002A00960C1300270988
:08096000E4051900F800F9009C
:080968000D00AA0F4306FF0C6D
:08097000AA0F10009C0B2400EB
:0809780000028A000306C20A16
:080980000A022000A402A402F7
:0809880000028A0003070D00C4
:080990000A0220000D00E4043E
:0809980019003C000B02E4050C
:0809A0001A00350076006A0020
:0809A8006A06E20A0304E404FC
:0809B00019001C02E4051A0005
:0809B8001506F60136033503B4
:0809C000AA02D40AE4051A00A2
:0809C80015020D0010000709E3
:0809D000010C10000609E4040B
:0809D8001F00130210001109B9
:0809E00010000909E4041F00E6
:0809E800130219003D0010008C
:0809F0000B09E40418001C02CD
:0809F8004307080B1E0010026A
:080A000010000609E4041E00C9
:080A0800120210000609640C43
:080A1000240000021000060999
:080A1800E4041900FD02F70AD5
:080A2000010C1F00550110003C
:080A28000D09020C1000060983
:080A3000E4041F001502430756
:080A3800F00A030C10009C0BF6
:080A40003C0C2A00200C1300FD
:080A4800270910000709100046
:080A50000F09E4041F0013026A
:080A580019003D0010000B091C
:080A6000E4051B00B207390B8D
:080A680013002D090306390BF0
:080A7000630BE40418001A02F4
:080A780024000002F00F430608
:080A80001F0CF00F2A00100CFE
:080A88008A002A002A032A0358
:080A90002A031F0C4A012A0091
:080A98000304E4041E00B9068A
:080AA0002A030304D9062A030E
:080AA8000A02CA012400220C1D
:080AB000E401A00243075E0B04
:080AB800A402A002E4041A00EC
:080AC000B0024306B102E40498
:080AC8001900FD022E0B1F00B6
:080AD00015024307270B0D007E
:080AD800130C2A00300C13007E
:080AE0002709E4051A001802C1
:080AE8004306790BFE0C10001F
:080AF0001109100007090D0CAB
:080AF8002A00200C130027095D
:080B000010000909E4041F00C4
:080B080013021D003000100073
:080B10000B09E4041E001402AD
:080B18001A00F4010306B50206
:080B20009F0003079C00FA018D
:080B28000306BB021E001002CF
:080B30001A00F0010306B102F6
:080B38009D0003079C00F6017B
:080B40000306B7021E001202B9
:080B48001A00F2010306B302DA
:080B50009E0003079C00F80160
:080B58000306B9021D00F002C2
:080B6000870B3D0C180030006A
:080B6800200C3100730C320077
:080B700010003309E4041B002E
:080B78001D02F0010306B102A9
:080B80001E02F2010306B3029C
:080B88001F02F4010306B5028F
:080B90001C024306E70B400CB8
:080B980018003000260C3100AA
:080BA000730C32001000330950
:080BA800E4041C0010021B0014
:080BB000F6010306B7021C0068
:080BB80011021B00F801030605
:080BC000B9021C0012021B0027
:080BC800FA010306BB02BC02A6
:080BD000E4051A0018024306B7
:080BD800FA0B14022E00010CBF
:080BE00098004307F50B070C18
:080BE8006E01860C2B003D0C90
:080BF000100013092D0CE404B0
:080BF800180030001F00150277
:080C000013004307060A980CDB
:080C080018003000300CE40478
:080C1000180031003C0C320019
:080C180010003309E4041F0081
:080C20001502430712007B0BD3
:080C28001B00FC009B0C1800EE
:080C30003000360C31003C0CD1
:080C3800320010003309E4054D
:080C40001A00180243060D0022
:080C4800FD0C10009C0B2400C0
:080C50006000A402EA02280A78
:080C58000D00E4041E001A0265
:080C600090000307450A100291
:080C68009B000307450A1C0272
:080C700092000307450A12027D
:080C78009D000307450A1E025E
:080C800094000307450A140269
:080C88009F006A03F906AA02AD
:080C90002A030307520A1D00AC
:080C98001F0243060D000304D6
:080CA000FF000D00E404180040
:080CA80019021D003F000D00C0
:080CB000090C2A00400C270981
:080CB8001200AB09010CE40578
:080CC0001A00970143076B0ABB
:080CC800AA0C10000609E40467
:080CD0001F0013026F0A030F5D
:080CD8004307710AFE0C100035
:080CE000110910000709E404EA
:080CE8001F0012022D00140090
:080CF000BE09090C2A00490CA1
:080CF8002709E4041C00FC00C4
:080D00001F0013021D00340066
:080D0800010C33001F00110271
:080D10002C0010000B092D0955
:080D18000307A20AE4041C0019
:080D20001D028C000307960A76
:080D28000C023D001C028C00CE
:080D300003069C0A0C023C00C2
:080D3800BE020C02F9010306E2
:080D4000BA020305010CE405F1
:080D48001A0097014307B50AE8
:080D5000E4041D00730313000D
:080D58000307B50A13021200A3
:080D6000B509010CE4041D00BB
:080D68003300AC02E4041D009D
:080D7000F402890A010C930052
:080D78004306C20A010C34001D
:080D80000304A80A1C001E0276
:080D88004306F70A1902F0010D
:080D90000302010EDA01F1017A
:080D98000306B2021E02F7017E
:080DA0000306B8021C022A0040
:080DA800980C1200BB09E404E1
:080DB0001C001D022A00980C32
:080DB8001200BB090D022A0024
:080DC000990C1200BB090D02A1
:080DC8002B00E4041C001E02D4
:080DD0001200CB09E4041C0031
:080DD800F3010302010EE40522
:080DE0001A00D601E4041C0016
:080DE800F4010306B502020C40
:080DF000E4051A009700430717
:080DF800240BE4041C001D02A1
:080E000043067C00490C2B00A5
:080E08004E0C11006009E40426
:080E10001C003B001C029D00C8
:080E18001D003200B2021C00B3
:080E20001E021D003100500C00
:080E28002B00520C11006009BF
:080E3000E4041C003F00E4058E
:080E38001A0013022E00850CC4
:080E40002B004B0C10001309FC
:080E4800AD02E4041F001502D5
:080E50004307770AE4051900CD
:080E58001A024307320B780077
:080E600079005D0B080C2C0069
:080E6800470C2B000C0C1100DB
:080E70006009E40519003C00D3
:080E78001B003105400C2B00AA
:080E8000470C12008509E4058E
:080E880019001C0243065B0B7C
:080E900018029A002A008A02F0
:080E98002B0019029B002A0047
:080EA0008A021200CB09460C86
:080EA8002B00A50C11006009EC
:080EB000E40519003D001B00E0
:080EB8003104E4051A001702E1
:080EC00012009C0A010C110054
:080EC800F80AE40419003900E6
:080ED0001F0C43001902090088
:080ED800620BFF0C650BFC0C22
:080EE000650B2904FD0C100054
:080EE8001509090410001709A7
:080EF000500CE40419003A0063
:080EF800E40419001A022400B1
:080F00000002E40419003B00AB
:080F08007C00E40419007C06E2
:080F1000A80BFB07910BFE0C7E
:080F1800100015091000190971
:080F2000960B10001709FD0CEF
:080F2800100015090907960BE2
:080F3000E4041900FB07A00B0B
:080F3800FE0C10001509A20BCC
:080F4000100017090304E4048A
:080F480019007B03BC02850BBC
:080F5000FE0C10001509100051
:080F58001909E40419007D00F1
:080F60002907B40B1D05BD0BB0
:080F680010001709E404190050
:080F7000BA02530C9A0043077A
:080F78007C0BFD0C10001509B3
:080F800010001909E404190036
:080F88001D020D00E4041D0030
:080F90003300A9070D00130254
:080F980013004307DB0BE40525
:080FA0001B0091042605050C5D
:080FA8001100EE092604050CFE
:080FB0001100EE09080CE40435
:080FB8001D0036001F0C35007E
:080FC0007400E4041D00B502F9
:080FC80013024307EC0B50007B
:080FD0004C0CD4014100EF0BB1
:080FD800150224000002E404EC
:080FE0001D003200140714008B
:080FE8000B0A6E00AE028E0739
:080FF000FD0B100CE4051B00D1
:080FF800B101C00CE4051B006F
:081000009106420CE4041D00FE
:08100800300010001B09000D6F
:0810100043071300F60BE40492
:081018001D003100B402F602D4
:081020001300E10B0D000304B5
:08102800E4041F003303B302CE
:08103000130203042A000A0365
:08103800F10103043403B402CA
:08104000140203042A000A0354
:08104800F2010D00010CE404AB
:081050001F0031003200E4052D
:081058001B009107360AEF0CA2
:08106000E40419003A007B00D2
:08106800A00C470A8F0CE40400
:0810700019003A007B00580C46
:08107800E4051B00B107470A63
:081080001F0CE40419003A0002
:08108800010C3B00B00CE40474
:081090001F003700E4051B00FE
:081098005205E4041F00D7001B
:0810A00019003C007D001C0C4E
:0810A8002B00780C1100600917
:0810B000E4041F003A003300C4
:0810B8001A0203042A000A03D6
:0810C0003C0019001B023D0079
:0810C8001A023C0003043D0381
:0810D0003C031C0C2B00790C01
:0810D80011006009E4041F008F
:0810E0003D001A0C2B00790CF5
:0810E80011006009E4041F007F
:0810F0003B00DB037C0AFB005E
:0810F8001B023400E4051B009B
:0811000052040D00100CE4057F
:081108001A003A00080C3B003C
:081110001E0C3D000F0C3E0017
:08111800050C3C003F000D0036
:081120002F000E0243060D0032
:08112800EE000E022400200C71
:08113000E40100022D000F0292
:08113800CE0124000D0220008D
:08114000910A0D00E4041900FE
:081148003B00E40419001B0246
:0811500043060D00FB00E7055A
:0811580010001D09A50A0D009D
:08116000E40419003C00E40462
:0811680019001C0243060D00F2
:08117000FC001F001702A20998
:08117800B30A0D00E4041800A5
:0811800019021D003F00C40A22
:08118800E4041F0015024306F8
:081190000D00F500E4051B0051
:081198005107D10AE4041F0015
:0811A0007500E4051B00F206D6
:0811A800DD0AE4041E00180238
:0811B000A209E4041F00D900AC
:0811B800B009E4041F00160257
:0811C00097001E0038001F001B
:0811C8001602A209E4051B0058
:0811D000F204E4041E007100AA
:0811D800730075000D00E7052E
:0811E00000000000E7040D000F
:0811E80010001F09E4051B00C3
:0811F00070061E0B6606FA0AE8
:0811F8006607FC0A8705660684
:08120000FF0AE4041F001202C2
:08120800D4012A00CA001900FC
:081210003B00020C3C00E60764
:081218000B0BE6060D0B660747
:08122000120B1C0BE404190081
:08122800FC020B0B1F00190270
:0812300019003C00FB020B0B4E
:0812380010002109E4041F006D
:08124000D1002B00180212007E
:08124800CB09E4041F0036008D
:08125000F00C1E003600200C1A
:08125800370039041906370BB9
:08126000010C1F009800430778
:08126800370B1E003905EF09E8
:08127000EF09EF09E4041F007F
:08127800D700A209E4041F00E5
:08128000D2002B00190212003C
:08128800CB09B009E4041F00CA
:0812900014023500E4051B0007
:08129800F2050D000802E70554
:0812A000E4041E00D601E7047E
:0812A8000307000CE705D70164
:0812B0000306000CE704D6015F
:0812B8003400F8000802E7050C
:0812C000D6010307000CE7044E
:0812C800D7010306000CD6015A
:0812D00030000802E705D60119
:0812D8000307000CE704D70135
:0812E0000306000CD6013200E8
:0812E80039060D00140019077E
:0812F000900B600C24000002C9
:0812F8002E00A4020002030510
:0813000043078E0010002309D1
:081308002F000E022000E4009A
:081310000F022000020CE401B1
:08131800660C840043077B0B07
:08132000E4041F00D8002F00B7
:0813280043060D00E4041E0061
:08133000180243060D00F8004D
:08133800E70510001D09EF029A
:08134000960B0D00870441002B
:08134800A704050C1100F809CF
:08135000A7050D00C7044100D0
:08135800E7044100E705410034
:08136000E7044100C7050D0080
:08136800E70400000000E705A6
:0813700000000000E70400008A
:081378000000E7050000000081
:08138000E70400000000E7058E
:0813880000000000E7040D0065
:081390002A000306D40B900CA7
:081398008A000307D20B800C50
:0813A000CA010D00100C0D0044
:0813A800700C8A00140003061A
:0813B000DC0B800CCA010D00EA
:0813B800F00C0D002A00FF0CEF
:0813C0002E00020C2B000A02B2
:0813C80015003A0BE4041E00BD
:0813D00079051800F80018026D
:0813D8004307F20B1702380075
:0813E0001E007904E4051B0066
:0813E8001007F90BFF0C1000C7
:0813F0000609000CE4051800D9
:0813F800900143071500360ABD
:0814000010002509480C100042
:081408000609E4051B001F02A8
:081410002E004306120A03043A
:08141800E4041A003103300363
:08142000EE020B0AE4051B00BB
:0814280072051A0032071B0ACD
:08143000200C100027095A0CE2
:08143800E4041E00B9063E0C9D
:08144000D906300C2F00220C2C
:081448002E000E022B00200C07
:081450001100600910002909D8
:08145800020CEE010E028F00F0
:081460004307250AE4051B0007
:0814680072042D0B020F430773
:08147000C40A13005809E40549
:08147800190016024306C00A28
:08148000E4047A00E404190001
:081488003A06C00A7D007B005A
:081490001A06740AE4051B00B2
:081498001E07700A190016027C
:0814A000E4041F009C00190088
:0814A8003C0003065A0A1B0573
:0814B0007C02BC02C906BB026C
:0814B800E4051A001B02E40424
:0814C00019009C000307700AEB
:0814C800E4051A001C02E40413
:0814D00019003D00E4051A00BB
:0814D8001A02E40419009C0053
:0814E000E405180011029D0A49
:0814E800E4051B003E079A0A0F
:0814F00019001702E4041F00BB
:0814F8009D0019003C000306F1
:08150000840A1B057C02BC02F9
:08150800E906BB02E4051A002C
:081510001E02E40419009C0016
:0815180003079A0AE4051A001A
:081520001F02E40419003D0064
:08152800E4051A001D02E404B1
:0815300019009C00E4051800FD
:081538001202E404190039005D
:081540000306A40A03043D03A5
:081548001B07AD0A1D02F901A9
:081550000307AC0AFF0C39008F
:08155800B50A1D02B9005B0C8D
:0815600099000306B50A5B0CBB
:08156800390019022A00810C70
:08157000DA0124000A02200048
:08157800E4041900BA02420A62
:08158000E40519001E02CC0A6B
:08158800060F43071F0B1000C2
:081590002A09E4051A0010020B
:081598002E00E4051900160203
:0815A00010000D09000D4306C7
:0815A800DA0AE4041E007907D1
:0815B0005904FA0A000CE405DD
:0815B8001A0091014307E10A4A
:0815C000ED0A010F4307E60AE2
:0815C800010C2E001B001107AD
:0815D000F60AE4041E005907AD
:0815D800F60A1500E4041E00F0
:0815E0007906F60A7905010CF9
:0815E80018003800E4041E00A5
:0815F00079075905540C1000A5
:0815F8000609080C2B00960CFB
:0816000010001309E4051800B5
:0816080030071E0B1A00120747
:081610000C0B470C1000270928
:08161800E4051B005E07150B41
:081620002D0C180091001000D0
:081628002909E4051B007E07FF
:081630001E0B2D0C18009200A6
:08163800100029092D0B100020
:081640002C09530C10000609EF
:08164800E40519001F022E0049
:08165000060C2B00980C1000A1
:08165800130910002E09E4043F
:081660001E007906360BE405BB
:081668001B00D205E4041E0082
:0816700079040D002F000B02AC
:08167800E40419003D007F0CA1
:081680005D013C000E07500B58
:081688000F0224000002E4043B
:081690001900FD074E0B1000CC
:081698000609500B100029099E
:0816A000AF0203042E03E40471
:0816A8001900FC02420B0D00C9
:0816B000E4051B00F0060D002B
:0816B800000D15004307620B51
:0816C00025040D0025050D00B5
:0816C80010000609E4041F00F4
:0816D000140210009C0B030240
:0816D800E404180033001E0CAD
:0816E0004300FB0C0500BE0CE9
:0816E8000600FA0C0700000CDB
:0816F0000800000C09001F0CAA
:0816F8004300FF0C0900040C83
:081700000500FF0C0800FD0CC0
:08170800A907FF0C0600050C07
:08171000A907070C0700370CC4
:08171800E40418009E004307E1
:0817200073057E007307D20B74
:08172800030C25006600080C0B
:08173000270068006900E00CCD
:081738002A00200C1300270910
:08174000010CE4041F00380055
:081748003900AD0CE4051800A6
:081750003100320033003400C7
:081758003500FF0C19003E00F2
:081760003F001A0030003100C7
:0817680033003400010C1B00EA
:081770003C00020CE404180027
:081778003900010C37007C0070
:08178000620C3A003B0014006A
:08178800820909022C002C0368
:081790002C03070C6C01500052
:081798003F0CCC014100E40408
:0817A00018003400170C43008F
:0817A800000C0600000C070014
:0817B000810C02001A0C430039
:0817B800100C0600190C43009F
:0817C000000C06001B0C4300A5
:0817C800EF0C06007306EA0BAA
:0817D0001600250A000C1000B0
:0817D8002F090504010C1100AA
:0817E000EE09E70510001D09E8
:0817E80010002109140026097C
:0817F000A907FC0B100007091A
:0817F800E4051B00510411007F
:081800004A094506250A030C04
:08180800E4051B003E00FA0C90
:081810002C00280C1100EE0968
:081818004C06100A2504110A18
:081820002505EC02090A130C76
:08182800E4041A003000200C5A
:081830003100020C10002F0929
:08183800040CE404180039005F
:0818400025044506210A1700EA
:08184800840B010CE4041800FC
:0818500038001E0059053A0C96
:0818580010000609E4041F0062
:081860007E0010003D092C0080
:081868000D0F4307400AE404E0
:081870001F001E0243063E0AA0
:081878001700B30B1700B60BBB
:08188000610C8C000306AC04AE
:08188800E4041F001E024306E8
:081890004A0A510A210C8C00E8
:081898000307500A0C023E0098
:0818A000310A0C023F001F0C8D
:0818A80019003F006E00FF0C67
:0818B000E4051B0050075E0A6D
:0818B80010003109E4041900DD
:0818C0003E000E02E4041900D1
:0818C8009E004307680A960A1E
:0818D000100031092C00E405B1
:0818D8001B00B0077A0AAE07FD
:0818E000720A890AAE02E40459
:0818E8001900BF021F022400D9
:0818F0000C022000E4051B00BE
:0818F8005006850A0D0CE40402
:081900001F0090004307850A57
:08190800960AE4051B00B0067D
:08191000610A5006940A0D0C57
:08191800E4041F0090004306E7
:08192000940A10003D098B0A36
:081928001700B30B6F00500023
:08193000640CCF0141002C0002
:081938003F0E16004307A20A4E
:081940001700B30B2A0042005E
:081948000F0E2D00200CCA0156
:08195000E4041F009E004307A0
:08195800B70A6C036D036C0378
:081960006D03200CCD019F0076
:081968004307B70AB90AAF02F8
:08197000970A03044F033F0036
:0819780003047F031A001002B2
:081980002C000F0443070F05C2
:081988006D00030C8C00030646
:08199000CE0A600C2D000304D7
:081998004C03ED011F001F02CA
:0819A0004307D90A0E06D90A1B
:0819A8000E0210002F091700C8
:0819B000B60B040C8E00430786
:0819B800020B440CE4041F00C3
:0819C0009F014307020B1A000E
:0819C80010024306020B11029C
:0819D0004306020B12021F0086
:0819D8009A000307020B1A003C
:0819E00013021F009B00030726
:0819E800020B1A001002B2000C
:0819F0000307020B1102B30012
:0819F8000307020BB202B30267
:081A0000710C250B0E024306D8
:081A0800090B060C8E004307D8
:081A1000290B580CE4041F002F
:081A18009F014307150B6A0C46
:081A200014009009020C1700EC
:081A2800BB0BF40F43071F0B79
:081A30000E0243071D0B170015
:081A3800B30B6A0C250BF00F43
:081A40004307290B1400820981
:081A4800AA0C1400900917001C
:081A5000B60B040C8E00030725
:081A58002F0B1700B30B0E0267
:081A6000E4041F003F01090C22
:081A68009F014307490B050C27
:081A70008C000306470B0C0279
:081A78002400810CE4010002CE
:081A80002A002D0C8A00030767
:081A8800000C1700DA0A170038
:081A9000B30B040F4307620BC6
:081A9800E4051B009106600B40
:081AA000B104200C0F07560BE6
:081AA800B105000CE4041A0072
:081AB0003100140C3000020C9F
:081AB80010002F091700CD0AF0
:081AC0001700B30B900F430760
:081AC800690BB20C2400100CA4
:081AD000F50B250F43077F0B06
:081AD80010003509C00C2F00BD
:081AE00010003D092A000D0F62
:081AE8004307770B7D0B0F0291
:081AF00024000A022000AF02ED
:081AF800700B1700B90B0D0F74
:081B00004307850B1A00510593
:081B08008A0BA40F4307900BA8
:081B10001A005104E4041A005C
:081B18001105040C1700BB0BC2
:081B2000040F4307980B0C02AF
:081B2800180039001700B60B8C
:081B30000C0F4307A20BE405B2
:081B38001B0091040F0691054A
:081B40001700CD0A900F4307C6
:081B4800AA0B0C021800370083
:081B50001700B60B970F4307C5
:081B5800B50B0D024306B30BAF
:081B6000A70C1700860A17000C
:081B6800B30B3F0F4307C40B50
:081B7000E4051B00D0052C0662
:081B7800D0040C06C10B0504AA
:081B8000C20B05051700B60BAE
:081B8800040F4307D30BE40531
:081B90001B00F0052C06F00417
:081B98000C06D00B2504D10B53
:081BA00025051700B60B840FA8
:081BA8004307DF0B0D024306A9
:081BB000DD0B18003B001700DB
:081BB800B60B1700B30B880FF8
:081BC0004307E90B0D02430687
:081BC800E70B1700640B170086
:081BD000B30B040F4307EF0BF8
:081BD800BE0C1700170A1C0FD8
:081BE0004307FB0BB00C2400CD
:081BE800080C2001FF0F0F079C
:081BF00060011700B60B040FA1
:081BF80043071700020AB30CB9
:081C00001700170A0C0F43073F
:081C08000D0AF80CE4051B00B5
:081C100070010C02070E300107
:081C1800B60B040F43071C0A80
:081C2000F50C8C000307160A05
:081C2800F50C2C00B80C24009F
:081C30000C0220001700B60BA6
:081C3800AC0F4307240AB10CB4
:081C40002400010C1600F50B55
:081C4800040F43072C0A690C8C
:081C50002400010C1600F50B45
:081C58000C0F4307340A690C6C
:081C60002400800C1600F50BB6
:081C6800330F4307460A1E007A
:081C7000B904D9042C073E0A57
:081C7800D9050C050C06B905A5
:081C80001A001102E4051B002B
:081C88003F00B60BD30F430728
:081C90004F0A0F074D0A27045B
:081C9800B60B2705B60BDD0FAA
:081CA0004307540A0F05580A1E
:081CA800280F43076E0A0F0428
:081CB00010003509E4051B00DA
:081CB800150243075A0A370C1C
:081CC000E40418003E000F07C8
:081CC8006C0A1F0C4300040C20
:081CD000A907060C0700070438
:081CD8000300710AC20F43076B
:081CE0007E0A0C024306790A9A
:081CE800E4041A001102430795
:081CF0007A0AB30B780C140012
:081CF8009009CD0A040F430717
:081D0000900A070C8C00030699
:081D08008F0A9E0CCC012D0096
:081D1000E4041A0011022C008A
:081D18000D021700170AB30BBE
:081D2000180F4307A90A050C86
:081D28008C000307980AB30BBD
:081D30002E0CE4041A009100DE
:081D38000306A00A2E0C310085
:081D4000D20C91000307A60A72
:081D4800D20C31002D0CD10179
:081D5000C20A040F4307CA0A8E
:081D5800050C8C000307B10A21
:081D6000B30B5000470CCC014D
:081D68004100E4041A003200FE
:081D700011024307BF0AFF0C3A
:081D780092016501C10A12028B
:081D80002501000C2D00810C6F
:081D8800CC0124000D02200033
:081D90001700B60B120F430708
:081D9800D00A14002609B60B65
:081DA000240F4307E30A000CC5
:081DA800E4051B00D107D90A74
:081DB000010CD1042C0010000D
:081DB80035090C021000290995
:081DC00010002E09B90B040FFD
:081DC8004307EB0A1000350986
:081DD00011004A09B90B0C0FC8
:081DD8004307F80A000C07069E
:081DE000080D4706040D06067C
:081DE800020DC606010DDA0A26
:081DF000040F4307FD0A010C7A
:081DF800BB0B690F4307080B48
:081E00000D024307040BB30BB4
:081E0800E40418003A000B0B82
:081E1000010F43070D0B000C4C
:081E1800BB0BB50F4307150BCE
:081E2000B20C2400200C160096
:081E2800F50B0C0F43071D0B25
:081E3000B10C2400080C16009F
:081E3800F50BCD0F4307320B3F
:081E400010003509710C1000BF
:081E48002709FF0CE4041F0050
:081E5000D301D10110002909A2
:081E5800FF0CE4041F00D4019B
:081E6000D201DE0A040F430762
:081E68003F0B10003509FF0CCF
:081E70002E00060C2B006A0C89
:081E780010001309E00A080F35
:081E80004307510BE4051B00B0
:081E880090047007480B90055F
:081E9000700410000709E405CD
:081E98001B009007500B7005C0
:081EA000B60BFC0F4307600BB9
:081EA80010003509E4051B00E0
:081EB00015024307560BE40480
:081EB8001800730515006F0B03
:081EC000A80F4307750B000C8D
:081EC800E40418003C001000C6
:081ED00035091200E6091000BB
:081ED80037094307700B740B7E
:081EE000E4051B007106690B0B
:081EE800B90B680F4307810BE1
:081EF00010003509E4041A009A
:081EF8005104110410002A0935
:081F0000B90BC40F4307B30B3A
:081F0800140013091000350953
:081F1000010CE405180030008B
:081F180010003909140026092C
:081F2000980C2F006A0C2D0043
:081F2800060C2E000E06A20BB0
:081F30000F02240000022C0046
:081F3800AF02E20CCC0103072B
:081F4000000CA60B1E0CCC01E5
:081F48000306FF0C2A000D0244
:081F500024000A022000AD028A
:081F5800EE02960B020CE405F9
:081F600018003000C00B4E0C0C
:081F68001700B70B410C10003B
:081F70003B091600250AE405F7
:081F78001800300010003509CB
:081F8000E4051B00D20410006F
:081F8800390910003709430775
:081F9000CA0BD50BE4051B0090
:081F980013024306C30B020C07
:081FA00093004307D50BD207A3
:081FA800C30B1600250A410CD1
:081FB000E30B4304E4051B00F0
:081FB8005106DF0B0D001000C3
:081FC0003D090D0F0D00E405C1
:081FC8001B0030060D001000A3
:081FD0000609430C100006098C
:081FD8004B0C1000060910007B
:021FE0009A0B5A
:021FFE00040AD3
:082000000400030004000D00C0
:082008000500050006000300BD
:082010000600010006000D00AE
:082018000300020000000000BB
:08202000AA07DF0B80F0FA02B1
:00000001FF
